{
  "contractName": "Dex",
  "abi": [
    {
      "anonymous": false,
      "inputs": [
        {
          "indexed": true,
          "internalType": "address",
          "name": "previousOwner",
          "type": "address"
        },
        {
          "indexed": true,
          "internalType": "address",
          "name": "newOwner",
          "type": "address"
        }
      ],
      "name": "OwnershipTransferred",
      "type": "event"
    },
    {
      "inputs": [
        {
          "internalType": "bytes32",
          "name": "ticker",
          "type": "bytes32"
        },
        {
          "internalType": "address",
          "name": "tokenAddress",
          "type": "address"
        }
      ],
      "name": "addToken",
      "outputs": [],
      "stateMutability": "nonpayable",
      "type": "function"
    },
    {
      "inputs": [
        {
          "internalType": "address",
          "name": "",
          "type": "address"
        },
        {
          "internalType": "bytes32",
          "name": "",
          "type": "bytes32"
        }
      ],
      "name": "balances",
      "outputs": [
        {
          "internalType": "uint256",
          "name": "",
          "type": "uint256"
        }
      ],
      "stateMutability": "view",
      "type": "function"
    },
    {
      "inputs": [
        {
          "internalType": "uint256",
          "name": "amount",
          "type": "uint256"
        },
        {
          "internalType": "bytes32",
          "name": "ticker",
          "type": "bytes32"
        }
      ],
      "name": "deposit",
      "outputs": [],
      "stateMutability": "nonpayable",
      "type": "function"
    },
    {
      "inputs": [],
      "name": "depositEth",
      "outputs": [],
      "stateMutability": "payable",
      "type": "function"
    },
    {
      "inputs": [],
      "name": "nextOrderId",
      "outputs": [
        {
          "internalType": "uint256",
          "name": "",
          "type": "uint256"
        }
      ],
      "stateMutability": "view",
      "type": "function"
    },
    {
      "inputs": [
        {
          "internalType": "bytes32",
          "name": "",
          "type": "bytes32"
        },
        {
          "internalType": "uint256",
          "name": "",
          "type": "uint256"
        },
        {
          "internalType": "uint256",
          "name": "",
          "type": "uint256"
        }
      ],
      "name": "orderBook",
      "outputs": [
        {
          "internalType": "uint256",
          "name": "id",
          "type": "uint256"
        },
        {
          "internalType": "address",
          "name": "trader",
          "type": "address"
        },
        {
          "internalType": "enum Dex.Side",
          "name": "side",
          "type": "uint8"
        },
        {
          "internalType": "bytes32",
          "name": "ticker",
          "type": "bytes32"
        },
        {
          "internalType": "uint256",
          "name": "amount",
          "type": "uint256"
        },
        {
          "internalType": "uint256",
          "name": "price",
          "type": "uint256"
        }
      ],
      "stateMutability": "view",
      "type": "function"
    },
    {
      "inputs": [],
      "name": "owner",
      "outputs": [
        {
          "internalType": "address",
          "name": "",
          "type": "address"
        }
      ],
      "stateMutability": "view",
      "type": "function"
    },
    {
      "inputs": [],
      "name": "renounceOwnership",
      "outputs": [],
      "stateMutability": "nonpayable",
      "type": "function"
    },
    {
      "inputs": [
        {
          "internalType": "uint256",
          "name": "",
          "type": "uint256"
        }
      ],
      "name": "tokenList",
      "outputs": [
        {
          "internalType": "bytes32",
          "name": "",
          "type": "bytes32"
        }
      ],
      "stateMutability": "view",
      "type": "function"
    },
    {
      "inputs": [
        {
          "internalType": "bytes32",
          "name": "",
          "type": "bytes32"
        }
      ],
      "name": "tokenMapping",
      "outputs": [
        {
          "internalType": "bytes32",
          "name": "ticker",
          "type": "bytes32"
        },
        {
          "internalType": "address",
          "name": "tokenAddress",
          "type": "address"
        }
      ],
      "stateMutability": "view",
      "type": "function"
    },
    {
      "inputs": [
        {
          "internalType": "address",
          "name": "newOwner",
          "type": "address"
        }
      ],
      "name": "transferOwnership",
      "outputs": [],
      "stateMutability": "nonpayable",
      "type": "function"
    },
    {
      "inputs": [
        {
          "internalType": "uint256",
          "name": "amount",
          "type": "uint256"
        },
        {
          "internalType": "bytes32",
          "name": "ticker",
          "type": "bytes32"
        }
      ],
      "name": "withdraw",
      "outputs": [],
      "stateMutability": "nonpayable",
      "type": "function"
    },
    {
      "inputs": [
        {
          "internalType": "bytes32",
          "name": "ticker",
          "type": "bytes32"
        },
        {
          "internalType": "enum Dex.Side",
          "name": "side",
          "type": "uint8"
        }
      ],
      "name": "getOrderBook",
      "outputs": [
        {
          "components": [
            {
              "internalType": "uint256",
              "name": "id",
              "type": "uint256"
            },
            {
              "internalType": "address",
              "name": "trader",
              "type": "address"
            },
            {
              "internalType": "enum Dex.Side",
              "name": "side",
              "type": "uint8"
            },
            {
              "internalType": "bytes32",
              "name": "ticker",
              "type": "bytes32"
            },
            {
              "internalType": "uint256",
              "name": "amount",
              "type": "uint256"
            },
            {
              "internalType": "uint256",
              "name": "price",
              "type": "uint256"
            }
          ],
          "internalType": "struct Dex.Order[]",
          "name": "",
          "type": "tuple[]"
        }
      ],
      "stateMutability": "view",
      "type": "function"
    },
    {
      "inputs": [
        {
          "internalType": "bytes32",
          "name": "ticker",
          "type": "bytes32"
        },
        {
          "internalType": "enum Dex.Side",
          "name": "side",
          "type": "uint8"
        },
        {
          "internalType": "uint256",
          "name": "amount",
          "type": "uint256"
        },
        {
          "internalType": "uint256",
          "name": "price",
          "type": "uint256"
        }
      ],
      "name": "createLimitOrder",
      "outputs": [],
      "stateMutability": "nonpayable",
      "type": "function"
    }
  ],
  "bytecode": "0x6080604052600060045534801561001557600080fd5b5060006100266100c960201b60201c565b9050806000806101000a81548173ffffffffffffffffffffffffffffffffffffffff021916908373ffffffffffffffffffffffffffffffffffffffff1602179055508073ffffffffffffffffffffffffffffffffffffffff16600073ffffffffffffffffffffffffffffffffffffffff167f8be0079c531659141344cd1fd0a4f28419497f9722a3daafe3b4186f6b6457e060405160405180910390a3506100d1565b600033905090565b61265b806100e06000396000f3fe6080604052600436106100dd5760003560e01c80639776aacf1161007f578063ba58ea6811610059578063ba58ea68146102a5578063c9630cb0146102e2578063ed25c4d31461030b578063f2fde38b14610334576100dd565b80639776aacf146102165780639ead72221461023f578063a8d2021a1461027c576100dd565b8063439370b1116100bb578063439370b11461018c578063667cb4ba14610196578063715018a6146101d45780638da5cb5b146101eb576100dd565b80630bb431b6146100e25780631f14df69146101245780632a58b33014610161575b600080fd5b3480156100ee57600080fd5b5061010960048036038101906101049190612012565b61035d565b60405161011b9695949392919061245d565b60405180910390f35b34801561013057600080fd5b5061014b60048036038101906101469190611ed2565b6103f0565b6040516101589190612442565b60405180910390f35b34801561016d57600080fd5b50610176610415565b6040516101839190612442565b60405180910390f35b61019461041b565b005b3480156101a257600080fd5b506101bd60048036038101906101b89190611f0e565b610514565b6040516101cb9291906123b9565b60405180910390f35b3480156101e057600080fd5b506101e9610558565b005b3480156101f757600080fd5b506102006106de565b60405161020d9190612361565b60405180910390f35b34801561022257600080fd5b5061023d60048036038101906102389190611f37565b610707565b005b34801561024b57600080fd5b5061026660048036038101906102619190612061565b610966565b604051610273919061239e565b60405180910390f35b34801561028857600080fd5b506102a3600480360381019061029e919061208a565b61098a565b005b3480156102b157600080fd5b506102cc60048036038101906102c79190611f73565b610cc9565b6040516102d9919061237c565b60405180910390f35b3480156102ee57600080fd5b506103096004803603810190610304919061208a565b610e03565b005b34801561031757600080fd5b50610332600480360381019061032d9190611faf565b61109a565b005b34801561034057600080fd5b5061035b60048036038101906103569190611ea9565b6113f2565b005b6005602052826000526040600020602052816000526040600020818154811061038557600080fd5b906000526020600020906005020160009250925050508060000154908060010160009054906101000a900473ffffffffffffffffffffffffffffffffffffffff16908060010160149054906101000a900460ff16908060020154908060030154908060040154905086565b6003602052816000526040600020602052806000526040600020600091509150505481565b60045481565b61049e34600360003373ffffffffffffffffffffffffffffffffffffffff1673ffffffffffffffffffffffffffffffffffffffff16815260200190815260200160002060007f45544800000000000000000000000000000000000000000000000000000000008152602001908152602001600020546115fd90919063ffffffff16565b600360003373ffffffffffffffffffffffffffffffffffffffff1673ffffffffffffffffffffffffffffffffffffffff16815260200190815260200160002060007f4554480000000000000000000000000000000000000000000000000000000000815260200190815260200160002081905550565b60016020528060005260406000206000915090508060000154908060010160009054906101000a900473ffffffffffffffffffffffffffffffffffffffff16905082565b610560611685565b73ffffffffffffffffffffffffffffffffffffffff1660008054906101000a900473ffffffffffffffffffffffffffffffffffffffff1673ffffffffffffffffffffffffffffffffffffffff1614610620576040517f08c379a00000000000000000000000000000000000000000000000000000000081526004018080602001828103825260208152602001807f4f776e61626c653a2063616c6c6572206973206e6f7420746865206f776e657281525060200191505060405180910390fd5b600073ffffffffffffffffffffffffffffffffffffffff1660008054906101000a900473ffffffffffffffffffffffffffffffffffffffff1673ffffffffffffffffffffffffffffffffffffffff167f8be0079c531659141344cd1fd0a4f28419497f9722a3daafe3b4186f6b6457e060405160405180910390a360008060006101000a81548173ffffffffffffffffffffffffffffffffffffffff021916908373ffffffffffffffffffffffffffffffffffffffff160217905550565b60008060009054906101000a900473ffffffffffffffffffffffffffffffffffffffff16905090565b61070f611685565b73ffffffffffffffffffffffffffffffffffffffff1660008054906101000a900473ffffffffffffffffffffffffffffffffffffffff1673ffffffffffffffffffffffffffffffffffffffff16146107cf576040517f08c379a00000000000000000000000000000000000000000000000000000000081526004018080602001828103825260208152602001807f4f776e61626c653a2063616c6c6572206973206e6f7420746865206f776e657281525060200191505060405180910390fd5b600073ffffffffffffffffffffffffffffffffffffffff166001600084815260200190815260200160002060010160009054906101000a900473ffffffffffffffffffffffffffffffffffffffff1673ffffffffffffffffffffffffffffffffffffffff16146108a7576040517f08c379a000000000000000000000000000000000000000000000000000000000815260040180806020018281038252601f8152602001807f43616e6e6f7420616464207468652073616d6520746f6b656e2074776963650081525060200191505060405180910390fd5b60405180604001604052808381526020018273ffffffffffffffffffffffffffffffffffffffff16815250600160008481526020019081526020016000206000820151816000015560208201518160010160006101000a81548173ffffffffffffffffffffffffffffffffffffffff021916908373ffffffffffffffffffffffffffffffffffffffff16021790555090505060028290806001815401808255809150506001900390600052602060002001600090919091909150555050565b6002818154811061097657600080fd5b906000526020600020016000915090505481565b80600073ffffffffffffffffffffffffffffffffffffffff166001600083815260200190815260200160002060010160009054906101000a900473ffffffffffffffffffffffffffffffffffffffff1673ffffffffffffffffffffffffffffffffffffffff161415610a64576040517f08c379a00000000000000000000000000000000000000000000000000000000081526004018080602001828103825260148152602001807f546f6b656e20646f6573206e6f7420657869737400000000000000000000000081525060200191505060405180910390fd5b82600360003373ffffffffffffffffffffffffffffffffffffffff1673ffffffffffffffffffffffffffffffffffffffff1681526020019081526020016000206000848152602001908152602001600020541015610b2a576040517f08c379a00000000000000000000000000000000000000000000000000000000081526004018080602001828103825260168152602001807f42616c616e6365206e6f742073756666696369656e740000000000000000000081525060200191505060405180910390fd5b610b8d83600360003373ffffffffffffffffffffffffffffffffffffffff1673ffffffffffffffffffffffffffffffffffffffff16815260200190815260200160002060008581526020019081526020016000205461168d90919063ffffffff16565b600360003373ffffffffffffffffffffffffffffffffffffffff1673ffffffffffffffffffffffffffffffffffffffff1681526020019081526020016000206000848152602001908152602001600020819055506001600083815260200190815260200160002060010160009054906101000a900473ffffffffffffffffffffffffffffffffffffffff1673ffffffffffffffffffffffffffffffffffffffff1663a9059cbb33856040518363ffffffff1660e01b8152600401808373ffffffffffffffffffffffffffffffffffffffff16815260200182815260200192505050602060405180830381600087803b158015610c8857600080fd5b505af1158015610c9c573d6000803e3d6000fd5b505050506040513d6020811015610cb257600080fd5b810190808051906020019092919050505050505050565b6060600560008481526020019081526020016000206000836001811115610cec57fe5b8152602001908152602001600020805480602002602001604051908101604052809291908181526020016000905b82821015610df757838290600052602060002090600502016040518060c0016040529081600082015481526020016001820160009054906101000a900473ffffffffffffffffffffffffffffffffffffffff1673ffffffffffffffffffffffffffffffffffffffff1673ffffffffffffffffffffffffffffffffffffffff1681526020016001820160149054906101000a900460ff166001811115610dbb57fe5b6001811115610dc657fe5b8152602001600282015481526020016003820154815260200160048201548152505081526020019060010190610d1a565b50505050905092915050565b80600073ffffffffffffffffffffffffffffffffffffffff166001600083815260200190815260200160002060010160009054906101000a900473ffffffffffffffffffffffffffffffffffffffff1673ffffffffffffffffffffffffffffffffffffffff161415610edd576040517f08c379a00000000000000000000000000000000000000000000000000000000081526004018080602001828103825260148152602001807f546f6b656e20646f6573206e6f7420657869737400000000000000000000000081525060200191505060405180910390fd5b610f4083600360003373ffffffffffffffffffffffffffffffffffffffff1673ffffffffffffffffffffffffffffffffffffffff1681526020019081526020016000206000858152602001908152602001600020546115fd90919063ffffffff16565b600360003373ffffffffffffffffffffffffffffffffffffffff1673ffffffffffffffffffffffffffffffffffffffff1681526020019081526020016000206000848152602001908152602001600020819055506001600083815260200190815260200160002060010160009054906101000a900473ffffffffffffffffffffffffffffffffffffffff1673ffffffffffffffffffffffffffffffffffffffff166323b872dd3330866040518463ffffffff1660e01b8152600401808473ffffffffffffffffffffffffffffffffffffffff1681526020018373ffffffffffffffffffffffffffffffffffffffff1681526020018281526020019350505050602060405180830381600087803b15801561105957600080fd5b505af115801561106d573d6000803e3d6000fd5b505050506040513d602081101561108357600080fd5b810190808051906020019092919050505050505050565b60008210156110de576040517f08c379a00000000000000000000000000000000000000000000000000000000081526004016110d590612422565b60405180910390fd5b600060018111156110eb57fe5b8360018111156110f757fe5b14156111c75761111081836116d790919063ffffffff16565b600360003373ffffffffffffffffffffffffffffffffffffffff1673ffffffffffffffffffffffffffffffffffffffff16815260200190815260200160002060007f455448000000000000000000000000000000000000000000000000000000000081526020019081526020016000205410156111c2576040517f08c379a00000000000000000000000000000000000000000000000000000000081526004016111b990612402565b60405180910390fd5b61127a565b6001808111156111d357fe5b8360018111156111df57fe5b14156112795781600360003373ffffffffffffffffffffffffffffffffffffffff1673ffffffffffffffffffffffffffffffffffffffff1681526020019081526020016000206000868152602001908152602001600020541015611278576040517f08c379a000000000000000000000000000000000000000000000000000000000815260040161126f906123e2565b60405180910390fd5b5b5b600060056000868152602001908152602001600020600085600181111561129d57fe5b81526020019081526020016000209050806040518060c0016040528060045481526020013373ffffffffffffffffffffffffffffffffffffffff1681526020018660018111156112e957fe5b81526020018781526020018581526020018481525090806001815401808255809150506001900390600052602060002090600502016000909190919091506000820151816000015560208201518160010160006101000a81548173ffffffffffffffffffffffffffffffffffffffff021916908373ffffffffffffffffffffffffffffffffffffffff16021790555060408201518160010160146101000a81548160ff0219169083600181111561139c57fe5b0217905550606082015181600201556080820151816003015560a0820151816004015550506000818054905011156113d9576113d8818561175d565b5b6004600081548092919060010191905055505050505050565b6113fa611685565b73ffffffffffffffffffffffffffffffffffffffff1660008054906101000a900473ffffffffffffffffffffffffffffffffffffffff1673ffffffffffffffffffffffffffffffffffffffff16146114ba576040517f08c379a00000000000000000000000000000000000000000000000000000000081526004018080602001828103825260208152602001807f4f776e61626c653a2063616c6c6572206973206e6f7420746865206f776e657281525060200191505060405180910390fd5b600073ffffffffffffffffffffffffffffffffffffffff168173ffffffffffffffffffffffffffffffffffffffff161415611540576040517f08c379a00000000000000000000000000000000000000000000000000000000081526004018080602001828103825260268152602001806125df6026913960400191505060405180910390fd5b8073ffffffffffffffffffffffffffffffffffffffff1660008054906101000a900473ffffffffffffffffffffffffffffffffffffffff1673ffffffffffffffffffffffffffffffffffffffff167f8be0079c531659141344cd1fd0a4f28419497f9722a3daafe3b4186f6b6457e060405160405180910390a3806000806101000a81548173ffffffffffffffffffffffffffffffffffffffff021916908373ffffffffffffffffffffffffffffffffffffffff16021790555050565b60008082840190508381101561167b576040517f08c379a000000000000000000000000000000000000000000000000000000000815260040180806020018281038252601b8152602001807f536166654d6174683a206164646974696f6e206f766572666c6f77000000000081525060200191505060405180910390fd5b8091505092915050565b600033905090565b60006116cf83836040518060400160405280601e81526020017f536166654d6174683a207375627472616374696f6e206f766572666c6f770000815250611d95565b905092915050565b6000808314156116ea5760009050611757565b60008284029050828482816116fb57fe5b0414611752576040517f08c379a00000000000000000000000000000000000000000000000000000000081526004018080602001828103825260218152602001806126056021913960400191505060405180910390fd5b809150505b92915050565b6000600181111561176a57fe5b81600181111561177657fe5b1415611a79576000600183805490500390505b6000811115611a73578260018203815481106117a157fe5b9060005260206000209060050201600401548382815481106117bf57fe5b9060005260206000209060050201600401541115611a655760008360018303815481106117e857fe5b90600052602060002090600502016040518060c0016040529081600082015481526020016001820160009054906101000a900473ffffffffffffffffffffffffffffffffffffffff1673ffffffffffffffffffffffffffffffffffffffff1673ffffffffffffffffffffffffffffffffffffffff1681526020016001820160149054906101000a900460ff16600181111561187f57fe5b600181111561188a57fe5b8152602001600282015481526020016003820154815260200160048201548152505090508382815481106118ba57fe5b90600052602060002090600502018460018403815481106118d757fe5b9060005260206000209060050201600082015481600001556001820160009054906101000a900473ffffffffffffffffffffffffffffffffffffffff168160010160006101000a81548173ffffffffffffffffffffffffffffffffffffffff021916908373ffffffffffffffffffffffffffffffffffffffff1602179055506001820160149054906101000a900460ff168160010160146101000a81548160ff0219169083600181111561198757fe5b0217905550600282015481600201556003820154816003015560048201548160040155905050808483815481106119ba57fe5b90600052602060002090600502016000820151816000015560208201518160010160006101000a81548173ffffffffffffffffffffffffffffffffffffffff021916908373ffffffffffffffffffffffffffffffffffffffff16021790555060408201518160010160146101000a81548160ff02191690836001811115611a3d57fe5b0217905550606082015181600201556080820151816003015560a08201518160040155905050505b808060019003915050611789565b50611d91565b600180811115611a8557fe5b816001811115611a9157fe5b1415611d90576000600183805490500390505b6000811115611d8e57826001820381548110611abc57fe5b906000526020600020906005020160040154838281548110611ada57fe5b9060005260206000209060050201600401541015611d80576000836001830381548110611b0357fe5b90600052602060002090600502016040518060c0016040529081600082015481526020016001820160009054906101000a900473ffffffffffffffffffffffffffffffffffffffff1673ffffffffffffffffffffffffffffffffffffffff1673ffffffffffffffffffffffffffffffffffffffff1681526020016001820160149054906101000a900460ff166001811115611b9a57fe5b6001811115611ba557fe5b815260200160028201548152602001600382015481526020016004820154815250509050838281548110611bd557fe5b9060005260206000209060050201846001840381548110611bf257fe5b9060005260206000209060050201600082015481600001556001820160009054906101000a900473ffffffffffffffffffffffffffffffffffffffff168160010160006101000a81548173ffffffffffffffffffffffffffffffffffffffff021916908373ffffffffffffffffffffffffffffffffffffffff1602179055506001820160149054906101000a900460ff168160010160146101000a81548160ff02191690836001811115611ca257fe5b021790555060028201548160020155600382015481600301556004820154816004015590505080848381548110611cd557fe5b90600052602060002090600502016000820151816000015560208201518160010160006101000a81548173ffffffffffffffffffffffffffffffffffffffff021916908373ffffffffffffffffffffffffffffffffffffffff16021790555060408201518160010160146101000a81548160ff02191690836001811115611d5857fe5b0217905550606082015181600201556080820151816003015560a08201518160040155905050505b808060019003915050611aa4565b505b5b5050565b6000838311158290611e42576040517f08c379a00000000000000000000000000000000000000000000000000000000081526004018080602001828103825283818151815260200191508051906020019080838360005b83811015611e07578082015181840152602081019050611dec565b50505050905090810190601f168015611e345780820380516001836020036101000a031916815260200191505b509250505060405180910390fd5b5060008385039050809150509392505050565b600081359050611e6481612589565b92915050565b600081359050611e79816125a0565b92915050565b600081359050611e8e816125b7565b92915050565b600081359050611ea3816125c7565b92915050565b600060208284031215611ebb57600080fd5b6000611ec984828501611e55565b91505092915050565b60008060408385031215611ee557600080fd5b6000611ef385828601611e55565b9250506020611f0485828601611e6a565b9150509250929050565b600060208284031215611f2057600080fd5b6000611f2e84828501611e6a565b91505092915050565b60008060408385031215611f4a57600080fd5b6000611f5885828601611e6a565b9250506020611f6985828601611e55565b9150509250929050565b60008060408385031215611f8657600080fd5b6000611f9485828601611e6a565b9250506020611fa585828601611e7f565b9150509250929050565b60008060008060808587031215611fc557600080fd5b6000611fd387828801611e6a565b9450506020611fe487828801611e7f565b9350506040611ff587828801611e94565b925050606061200687828801611e94565b91505092959194509250565b60008060006060848603121561202757600080fd5b600061203586828701611e6a565b935050602061204686828701611e94565b925050604061205786828701611e94565b9150509250925092565b60006020828403121561207357600080fd5b600061208184828501611e94565b91505092915050565b6000806040838503121561209d57600080fd5b60006120ab85828601611e94565b92505060206120bc85828601611e6a565b9150509250929050565b60006120d283836122c8565b60c08301905092915050565b6120e781612508565b82525050565b6120f681612508565b82525050565b6000612107826124ce565b61211181856124e6565b935061211c836124be565b8060005b8381101561214d57815161213488826120c6565b975061213f836124d9565b925050600181019050612120565b5085935050505092915050565b6121638161251a565b82525050565b6121728161251a565b82525050565b61218181612561565b82525050565b61219081612561565b82525050565b60006121a36031836124f7565b91507f416d6f756e74206d757374206265206c657373207468616e206f72206571756160008301527f6c20746f2062616c616e636520736f6c640000000000000000000000000000006020830152604082019050919050565b60006122096025836124f7565b91507f496e73756666696369656e742066756e647320746f20706c616365206275792060008301527f6f726465720000000000000000000000000000000000000000000000000000006020830152604082019050919050565b600061226f6038836124f7565b91507f4d75737420737570706c792061206e6f6e2d7a65726f20616d6f756e7420796f60008301527f7520776f756c64206c696b6520746f206275792f73656c6c00000000000000006020830152604082019050919050565b60c0820160008201516122de6000850182612343565b5060208201516122f160208501826120de565b5060408201516123046040850182612178565b506060820151612317606085018261215a565b50608082015161232a6080850182612343565b5060a082015161233d60a0850182612343565b50505050565b61234c81612557565b82525050565b61235b81612557565b82525050565b600060208201905061237660008301846120ed565b92915050565b6000602082019050818103600083015261239681846120fc565b905092915050565b60006020820190506123b36000830184612169565b92915050565b60006040820190506123ce6000830185612169565b6123db60208301846120ed565b9392505050565b600060208201905081810360008301526123fb81612196565b9050919050565b6000602082019050818103600083015261241b816121fc565b9050919050565b6000602082019050818103600083015261243b81612262565b9050919050565b60006020820190506124576000830184612352565b92915050565b600060c0820190506124726000830189612352565b61247f60208301886120ed565b61248c6040830187612187565b6124996060830186612169565b6124a66080830185612352565b6124b360a0830184612352565b979650505050505050565b6000819050602082019050919050565b600081519050919050565b6000602082019050919050565b600082825260208201905092915050565b600082825260208201905092915050565b600061251382612537565b9050919050565b6000819050919050565b600081905061253282612575565b919050565b600073ffffffffffffffffffffffffffffffffffffffff82169050919050565b6000819050919050565b600061256c82612524565b9050919050565bfe5b6002811061258657612585612573565b5b50565b61259281612508565b811461259d57600080fd5b50565b6125a98161251a565b81146125b457600080fd5b50565b600281106125c457600080fd5b50565b6125d081612557565b81146125db57600080fd5b5056fe4f776e61626c653a206e6577206f776e657220697320746865207a65726f2061646472657373536166654d6174683a206d756c7469706c69636174696f6e206f766572666c6f77a2646970667358221220609145362caa938b991ce45b3b0999af8c788fd58aba9c87a316ca4ab76c897a64736f6c63430007060033",
  "immutableReferences": {},
  "source": "pragma solidity >=0.6.0 <0.8.0;\r\npragma abicoder v2;\r\n\r\nimport \"./Wallet.sol\";\r\nimport \"../node_modules/@openzeppelin/contracts/math/SafeMath.sol\";\r\n\r\ncontract Dex is Wallet {\r\n    using SafeMath for uint256;\r\n\r\n    enum Side {BUY, SELL}\r\n\r\n    struct Order {\r\n        uint256 id;\r\n        address trader;\r\n        Side side;\r\n        bytes32 ticker;\r\n        uint256 amount;\r\n        uint256 price;\r\n    }\r\n\r\n    uint256 public nextOrderId = 0;\r\n\r\n    mapping(bytes32 => mapping(uint256 => Order[])) public orderBook;\r\n\r\n    function getOrderBook(bytes32 ticker, Side side)\r\n        public\r\n        view\r\n        returns (Order[] memory)\r\n    {\r\n        return orderBook[ticker][uint256(side)];\r\n    }\r\n\r\n    function createLimitOrder(\r\n        bytes32 ticker,\r\n        Side side,\r\n        uint256 amount,\r\n        uint256 price\r\n    ) public {\r\n        require(\r\n            amount >= 0,\r\n            \"Must supply a non-zero amount you would like to buy/sell\"\r\n        );\r\n        if (side == Side.BUY) {\r\n            require(\r\n                balances[msg.sender][\"ETH\"] >= amount.mul(price),\r\n                \"Insufficient funds to place buy order\"\r\n            );\r\n        } else if (side == Side.SELL) {\r\n            require(\r\n                balances[msg.sender][ticker] >= amount,\r\n                \"Amount must be less than or equal to balance sold\"\r\n            );\r\n        }\r\n\r\n        Order[] storage orders = orderBook[ticker][uint256(side)];\r\n        orders.push(\r\n            Order(nextOrderId, msg.sender, side, ticker, amount, price)\r\n        );\r\n\r\n        // Bubble sort\r\n        if (orders.length > 0) {\r\n            sortOrderBook(orders, side);\r\n        }\r\n\r\n        nextOrderId++;\r\n    }\r\n\r\n    function sortOrderBook(Order[] storage orders, Side side) private {\r\n        if (side == Side.BUY) {\r\n            for (uint256 i = orders.length - 1; i > 0; i--) {\r\n                if (orders[i].price > orders[i - 1].price) {\r\n                    Order memory temp = orders[i - 1];\r\n                    orders[i - 1] = orders[i];\r\n                    orders[i] = temp;\r\n                }\r\n            }\r\n        } else if (side == Side.SELL) {\r\n            for (uint256 i = orders.length - 1; i > 0; i--) {\r\n                if (orders[i].price < orders[i - 1].price) {\r\n                    Order memory temp = orders[i - 1];\r\n                    orders[i - 1] = orders[i];\r\n                    orders[i] = temp;\r\n                }\r\n            }\r\n        }\r\n    }\r\n}\r\n",
  "sourcePath": "D:/Ivan On Tech Academy/Ethereum Programming 201/2021/DEX/contracts/Dex.sol",
  "compiler": {
    "name": "solc",
    "version": "0.7.6+commit.7338295f.Emscripten.clang"
  },
  "schemaVersion": "3.3.4",
  "updatedAt": "2021-04-29T00:01:12.140Z",
  "devdoc": {
    "kind": "dev",
    "methods": {
      "owner()": {
        "details": "Returns the address of the current owner."
      },
      "renounceOwnership()": {
        "details": "Leaves the contract without owner. It will not be possible to call `onlyOwner` functions anymore. Can only be called by the current owner. NOTE: Renouncing ownership will leave the contract without an owner, thereby removing any functionality that is only available to the owner."
      },
      "transferOwnership(address)": {
        "details": "Transfers ownership of the contract to a new account (`newOwner`). Can only be called by the current owner."
      }
    },
    "version": 1
  },
  "userdoc": {
    "kind": "user",
    "methods": {},
    "version": 1
  }
}